:080000000000022019000000BD
:100008004841525348495420534148410D0A000081
:1000180019484FF00601016018481949016019484C
:100028004FF00401016018484FF001010160174DBD
:100038004FF0100A4FF0000B4FF0010C00F013F8CE
:1000480014F8011B00290ED000F003F800F004F8A2
:10005800F6E70F48016070472E68012EFCD14FF07B
:1000680000062E607047DA4503D00BF1010B094CEE
:10007800E6E74FF0000CFCE70C2500402425004083
:1000880000E0D70100250040082000401C21004066
:080098001C25004008000000D7
:0400000300000008F1
:00000001FF
